:020000040800F2
:1000000090060020CD010008051D0008FD1C000819
:10001000011D000887020008211F000800000000E1
:10002000000000000000000000000000471D000864
:10003000B502000800000000451D0008311E000840
:10004000E7010008E7010008E7010008E7010008F0
:10005000E7010008E7010008D11B0008E7010008DC
:10006000111C0008451C0008A11C0008E70100083D
:10007000E7010008E7010008E7010008E7010008C0
:10008000E7010008E7010008E7010008E7010008B0
:10009000E7010008E7010008E7010008E7010008A0
:1000A000E7010008E7010008E7010008E701000890
:1000B000E7010008951E0008E7010008E7010008B5
:1000C000E7010008E7010008E7010008E701000870
:1000D000E7010008C51E0008E7010008FD1E000832
:1000E000E7010008E7010008E7010008E701000850
:1000F000E7010008E7010008E7010008E701000840
:10010000E7010008E7010008E7010008E70100082F
:10011000E7010008E7010008E7010008E70100081F
:10012000E7010008E7010008E7010008E70100080F
:1001300000F002F800F03AF80AA090E8000C8244BF
:100140008344AAF10107DA4501D100F02FF8AFF29C
:10015000090EBAE80F0013F0010F18BFFB1A43F0A5
:100160000103184790410000B0410000103A24BF3D
:1001700078C878C1FAD8520724BF30C830C144BF0C
:1001800004680C607047000000230024002500264E
:10019000103A28BF78C1FBD8520728BF30C148BFEA
:1001A0000B6070471FB51FBD10B510BD00F031F8D2
:1001B0001146FFF7F7FF02F02BF800F04FF803B4F9
:1001C000FFF7F2FF03BC00F057F800000948804732
:1001D00009480047FEE7FEE7FEE7FEE7FEE7FEE729
:1001E000FEE7FEE7FEE7FEE704480549054A064B41
:1001F00070470000351E0008310100089000002003
:100200009006002090020020900200207047704766
:100210007047754600F02CF8AE4605006946534617
:1002200020F00700854618B020B5FFF7DDFFBDE8D8
:1002300020404FF000064FF000074FF000084FF04D
:10024000000B21F00701AC46ACE8C009ACE8C009DE
:10025000ACE8C009ACE8C0098D46704710B504464B
:10026000AFF300802046BDE81040FFF7A8BF0000B4
:10027000004870472C00002001491820ABBEFEE763
:1002800026000200704700BFFEE700000348006838
:1002900020F4807001490860704700000C0C014098
:1002A0000348006840F4807001490860704700000E
:1002B0000C0C0140704700BF011EA0F10100FBD1F2
:1002C000704700004448806940F00400424988615A
:1002D0000846806940F0080088610846806940F05F
:1002E000400088613D48006820F003003B490860F9
:1002F0000846006820F00C0008600846006840F0DE
:100300000800086035480C30006840F001003349AF
:100310000C3108603148006820F030002F49086037
:100320000846006820F0C00008600846006840F0F9
:100330008000086029480C30006840F0020027491E
:100340000C3108602548006820F44070234908609B
:100350000846006820F4406008600846006840F4E1
:10036000006008601D480C30006840F004001B4924
:100370000C3108601A48006820F4403018490860C1
:100380000846006820F4402008600846006840F4F1
:100390000020086012480C30006820F0100010495E
:1003A0000C3108600F48006820F003000D49086018
:1003B0000846006840F0010008600846006820F028
:1003C0000C00086007480830006820F48070054978
:1003D000083108607047000000100240000801402A
:1003E00000180140040C014065211448017075217A
:1003F000401C0170017801705521C01C017010482B
:10040000006840F040004FF0E021C1F800010846CC
:10041000D0F8000140F48070C1F800010846D0F81F
:10042000000140F40070C1F800010846D0F8000156
:1004300040F48060C1F800017047000006E400E06D
:1004400000E100E010B50346224C4FF4285001F0C3
:100450007EFA002001F088FA42F6012001F077FAD6
:10046000002001F081FA42F6022001F070FA01202A
:1004700001F07AFA42F6032001F069FADF2001F078
:1004800073FA4FF42C5001F062FA002001F06CFA7C
:1004900042F6013001F05BFA002001F065FA42F605
:1004A000023001F054FA032001F05EFA42F6033004
:1004B00001F04DFA1F2001F057FA4FF4305001F0CF
:1004C00046FA002203E0184601F04EFA521CA242FE
:1004D000F9D310BD00DC05002DE9F04F05460E46AE
:1004E00092469B46002457460320A0EB4A09BBF1E5
:1004F000000F48D144E0F21B91B22A1990B2099A38
:1005000000F099F8321B91B2EA1990B2099A00F002
:1005100092F8321991B2EA1990B2099A00F08BF868
:10052000F21991B22A1990B2099A00F084F8F219DE
:1005300091B22A1B90B2099A00F07DF8321991B25B
:10054000EA1B90B2099A00F076F8F21B91B22A1BCE
:1005500090B2099A00F06FF8321B91B2EA1B90B288
:10056000099A00F068F8641CB9F1000F03DAA000E2
:10057000801D814404E0E01B80000A3081447F1E1E
:10058000BC42B8DD55E052E0A04641E0A6EB0802CF
:1005900091B22A1990B2099A00F04DF8321B91B22B
:1005A00005EB080290B2099A00F045F8321991B2B1
:1005B00005EB080290B2099A00F03DF806EB08023C
:1005C00091B22A1990B2099A00F035F806EB0802A8
:1005D00091B22A1B90B2099A00F02DF8321991B20B
:1005E000A5EB080290B2099A00F025F8A6EB0802E4
:1005F00091B22A1B90B2099A00F01DF8321B91B2F9
:10060000A5EB080290B2099A00F015F808F101086C
:10061000B845BBDD641CB9F1000F03DAA000801DF2
:10062000814404E0E01B80000A3081447F1EBC420C
:10063000AADDBDE8F08F10B503460C464FF42850F4
:1006400001F085F9181201F08FF942F6012001F04E
:100650007EF9D8B201F088F94FF42C5001F077F907
:10066000201201F081F942F6013001F070F9E0B298
:1006700001F07AF94FF4305001F069F9104601F0B9
:1006800073F910BD2DE9F04305460E46174698460E
:10069000DDF81C90002410E0291988B24A46314642
:1006A000FFF7C9FF06EB0802521E91B22A1990B259
:1006B0004A46FFF7C0FF601C84B2BC42ECDB00245A
:1006C0000FE0301981B24A462846FFF7B4FF3219CD
:1006D00091B2EA19521E90B24A46FFF7ACFF601C75
:1006E00084B24445EDDBBDE8F0832DE9F0470446D4
:1006F0000D46DDF820906019401E87B2D018401ECC
:100700001FFA80F805FB03FA4FF4285001F01FF997
:10071000201201F029F942F6012001F018F9E0B2A7
:1007200001F022F942F6022001F011F9381201F02D
:100730001BF942F6032001F00AF9F8B201F014F9AE
:100740004FF42C5001F003F9101201F00DF942F6AC
:10075000013001F0FCF8D0B201F006F942F60230A7
:1007600001F0F5F84FEA282001F0FEF842F60330D8
:1007700001F0EDF808F0FF0001F0F6F84FF430500A
:1007800001F0E5F8002603E0484601F0EDF8761C9C
:100790005645F9D3BDE8F08710B504462046FFF76B
:1007A00051FE10BD10B55748406940F4807055495E
:1007B00048610846806940F0080088610846806901
:1007C00040F0200088610846806940F04000886160
:1007D0000846806940F4807088614B48006820F0CA
:1007E0000F00494908600846006840F003000860AF
:1007F0004648006846490840444908600846006881
:100800004449084341490860081F006800F0FF2080
:10081000091F08600846006840F0BB1008603E48A9
:10082000006800203C4908600846006840F0BB3082
:100830000860081F006820F07040091F0860084623
:10084000006840F0304008603448406820F4702070
:10085000324948600846406840F430204860084605
:10086000006820F00F0008600846006840F00B00A8
:10087000086000204FF020418861C8612849086065
:100880004FF02040806940F480504FF02041886153
:100890000846806940F4804088610846806940F0DD
:1008A000100088610846C069C8610846C06940F008
:1008B0000100C8610846C06940F47060C86118480A
:1008C0000068C1F81C0116480068C1F81C01084600
:1008D000D0F81C0140F44070C1F81C010846806942
:1008E00040F0010088610F48FFF7E5FC00F01CF8BC
:1008F00005481030006840F00100034910310860DD
:1009000010BD000000100240000C01400414014022
:1009100000F0FF00BB0B00BB0418014000200140A9
:100920001C0100A020A1070010B555214FF4704014
:1009300001F012F8AA214FF2010001F00DF8522146
:100940004FF2020001F008F808214FF2030001F015
:1009500003F801214FF2040000F0FEFF0D214FF4D7
:10096000304000F0F9FF0D214BF2010000F0F4FFE0
:100970000D214BF2020000F0EFFF35214FF436401D
:1009800000F0EAFF35214BF2016000F0E5FF352170
:100990004BF2026000F0E0FF0D214FF4314000F017
:1009A000DBFF0D214BF2011000F0D6FF0D214BF2C1
:1009B000021000F0D1FF35214FF4374000F0CCFF9A
:1009C00035214BF2017000F0C7FF35214BF2027068
:1009D00000F0C2FF00214FF4324000F0BDFF0021C3
:1009E0004BF2012000F0B8FF00214BF2022000F092
:1009F000B3FF24214FF4384000F0AEFF24214BF622
:100A0000010000F0A9FF24214BF6020000F0A4FF32
:100A100001214FF43F4000F09FFF08214FF4334085
:100A200000F09AFF08214BF2013000F095FF0821F9
:100A30004BF2023000F090FF34214FF4394000F0C7
:100A40008BFF34214BF6011000F086FF34214BF66A
:100A5000021000F081FF24214FF43A4000F07CFFA7
:100A600024214BF6012000F077FF24214BF60220D1
:100A700000F072FF00214FF43C4000F06DFF882130
:100A80004BF6014000F068FF00214BF6024000F0F9
:100A900063FF00214FF43D4000F05EFF88214BF6DC
:100AA000015000F059FF00214BF6025000F054FFB6
:100AB00000214FF43E4000F04FFFA3214BF60160B0
:100AC00000F04AFF00214FF4514000F045FF05219E
:100AD0004DF2011000F040FF00214DF2021000F035
:100AE0003BFF40214DF2031000F036FF00214DF294
:100AF000041000F031FF60214DF2051000F02CFFD2
:100B000000214DF2061000F027FF90214DF2071052
:100B100000F022FF00214DF2081000F01DFF992186
:100B20004DF2091000F018FF00214DF20A1000F0FC
:100B300013FFBB214DF20B1000F00EFF00214DF210
:100B40000C1000F009FFDC214DF20D1000F004FF45
:100B500001214DF20E1000F0FFFE04214DF20F10A6
:100B600000F0FAFE01214DF2101000F0F5FE2521F3
:100B70004DF2111000F0F0FE01214DF2121000F0C4
:100B8000EBFE59214DF2131000F0E6FE01214DF26B
:100B9000141000F0E1FE82214DF2151000F0DCFE91
:100BA00001214DF2161000F0D7FEC6214DF21710AC
:100BB00000F0D2FE02214DF2181000F0CDFE01210E
:100BC0004DF2191000F0C8FE02214DF21A1000F08B
:100BD000C3FE02214DF21B1000F0BEFE02214DF2B9
:100BE0001C1000F0B9FE39214DF21D1000F0B4FECA
:100BF00002214DF21E1000F0AFFE79214DF21F10C0
:100C000000F0AAFE02214DF2201000F0A5FEA12165
:100C10004DF2211000F0A0FE02214DF2221000F052
:100C20009BFED9214DF2231000F096FE03214DF2D8
:100C3000241000F091FE00214DF2251000F08CFEF2
:100C400003214DF2261000F087FE38214DF22710C7
:100C500000F082FE03214DF2281000F07DFE672196
:100C60004DF2291000F078FE03214DF22A1000F019
:100C700073FE8F214DF22B1000F06EFE03214DF21A
:100C80002C1000F069FECD214DF22D1000F064FE15
:100C900003214DF22E1000F05FFEFD214DF22F10CA
:100CA00000F05AFE03214DF2301000F055FEFE21F7
:100CB0004DF2311000F050FE03214DF2321000F0E1
:100CC0004BFEFF214DF2331000F046FE00214FF4A1
:100CD000524000F041FE05214DF2012000F03CFEA3
:100CE00000214DF2022000F037FE40214DF203209A
:100CF00000F032FE00214DF2042000F02DFE6D21A7
:100D00004DF2052000F028FE00214DF2062000F0F3
:100D100023FE90214DF2072000F01EFE00214DF22F
:100D2000082000F019FE99214DF2092000F014FE70
:100D300000214DF20A2000F00FFEBB214DF20B20E6
:100D400000F00AFE00214DF20C2000F005FEDC212F
:100D50004DF20D2000F000FE01214DF20E2000F0BA
:100D6000FBFD04214DF20F2000F0F6FD01214DF2B4
:100D7000102000F0F1FD25214DF2112000F0ECFDD6
:100D800001214DF2122000F0E7FD59214DF2132010
:100D900000F0E2FD01214DF2142000F0DDFD822182
:100DA0004DF2152000F0D8FD01214DF2162000F083
:100DB000D3FDC6214DF2172000F0CEFD02214DF2E9
:100DC000182000F0C9FD01214DF2192000F0C4FDEA
:100DD00002214DF21A2000F0BFFD02214DF21B202E
:100DE00000F0BAFD02214DF21C2000F0B5FD3921C2
:100DF0004DF21D2000F0B0FD02214DF21E2000F04A
:100E0000ABFD79214DF21F2000F0A6FD02214DF22D
:100E1000202000F0A1FDA1214DF2212000F09CFD39
:100E200002214DF2222000F097FDD9214DF223201E
:100E300000F092FD03214DF2242000F08DFD0021F1
:100E40004DF2252000F088FD03214DF2262000F010
:100E500083FD38214DF2272000F07EFD03214DF265
:100E6000282000F079FD67214DF2292000F074FD63
:100E700003214DF22A2000F06FFD8F214DF22B202F
:100E800000F06AFD03214DF22C2000F065FDCD211C
:100E90004DF22D2000F060FD03214DF22E2000F0D8
:100EA0005BFDFD214DF22F2000F056FD03214DF298
:100EB000302000F051FDFE214DF2312000F04CFDBC
:100EC00003214DF2322000F047FDFF214DF2332087
:100ED00000F042FD00214FF4534000F03DFD05219C
:100EE0004DF2013000F038FD00214DF2023000F0EB
:100EF00033FD40214DF2033000F02EFD00214DF274
:100F0000043000F029FD6D214DF2053000F024FD84
:100F100000214DF2063000F01FFD90214DF2073008
:100F200000F01AFD00214DF2083000F015FD992166
:100F30004DF2093000F010FD00214DF20A3000F0B2
:100F40000BFDBB214DF20B3000F006FD00214DF2F0
:100F50000C3000F001FDDC214DF20D3000F0FCFC06
:100F600001214DF20E3000F0F7FC04214DF20F305C
:100F700000F0F2FC01214DF2103000F0EDFC2521D3
:100F80004DF2113000F0E8FC01214DF2123000F07A
:100F9000E3FC59214DF2133000F0DEFC01214DF24B
:100FA000143000F0D9FC82214DF2153000F0D4FC51
:100FB00001214DF2163000F0CFFCC6214DF2173062
:100FC00000F0CAFC02214DF2183000F0C5FC0121EE
:100FD0004DF2193000F0C0FC02214DF21A3000F041
:100FE000BBFC02214DF21B3000F0B6FC02214DF299
:100FF0001C3000F0B1FC39214DF21D3000F0ACFC8A
:1010000002214DF21E3000F0A7FC79214DF21F3075
:1010100000F0A2FC02214DF2203000F09DFCA12145
:101020004DF2213000F098FC02214DF2223000F008
:1010300093FCD9214DF2233000F08EFC03214DF2B8
:10104000243000F089FC00214DF2253000F084FCB2
:1010500003214DF2263000F07FFC38214DF227307D
:1010600000F07AFC03214DF2283000F075FC672176
:101070004DF2293000F070FC03214DF22A3000F0CF
:101080006BFC8F214DF22B3000F066FC03214DF2FA
:101090002C3000F061FCCD214DF22D3000F05CFCD5
:1010A00003214DF22E3000F057FCFD214DF22F3080
:1010B00000F052FC03214DF2303000F04DFCFE21D7
:1010C0004DF2313000F048FC03214DF2323000F097
:1010D00043FCFF214DF2333000F03EFC00214FF481
:1010E000544000F039FC05214DF2014000F034FC81
:1010F00000214DF2024000F02FFC40214DF2034050
:1011000000F02AFC00214DF2044000F025FC6D2186
:101110004DF2054000F020FC00214DF2064000F0A9
:101120001BFC90214DF2074000F016FC00214DF20F
:10113000084000F011FC99214DF2094000F00CFC30
:1011400000214DF20A4000F007FCBB214DF20B409C
:1011500000F002FC00214DF20C4000F0FDFBDC2110
:101160004DF20D4000F0F8FB01214DF20E4000F071
:10117000F3FB04214DF20F4000F0EEFB01214DF294
:10118000104000F0E9FB25214DF2114000F0E4FB96
:1011900001214DF2124000F0DFFB59214DF21340C6
:1011A00000F0DAFB01214DF2144000F0D5FB822162
:1011B0004DF2154000F0D0FB01214DF2164000F039
:1011C000CBFBC6214DF2174000F0C6FB02214DF2C9
:1011D000184000F0C1FB01214DF2194000F0BCFBAA
:1011E00002214DF21A4000F0B7FB02214DF21B40E4
:1011F00000F0B2FB02214DF21C4000F0ADFB3921A2
:101200004DF21D4000F0A8FB02214DF21E4000F0FF
:10121000A3FB79214DF21F4000F09EFB02214DF20D
:10122000204000F099FBA1214DF2214000F094FBF9
:1012300002214DF2224000F08FFBD9214DF22340D4
:1012400000F08AFB03214DF2244000F085FB0021D1
:101250004DF2254000F080FB03214DF2264000F0C6
:101260007BFB38214DF2274000F076FB03214DF245
:10127000284000F071FB67214DF2294000F06CFB23
:1012800003214DF22A4000F067FB8F214DF22B40E5
:1012900000F062FB03214DF22C4000F05DFBCD21FC
:1012A0004DF22D4000F058FB03214DF22E4000F08E
:1012B00053FBFD214DF22F4000F04EFB03214DF278
:1012C000304000F049FBFE214DF2314000F044FB7C
:1012D00003214DF2324000F03FFBFF214DF233403D
:1012E00000F03AFB00214FF4554000F035FB05219A
:1012F0004DF2015000F030FB00214DF2025000F0A1
:101300002BFB40214DF2035000F026FB00214DF253
:10131000045000F021FB6D214DF2055000F01CFB44
:1013200000214DF2065000F017FB90214DF20750BE
:1013300000F012FB00214DF2085000F00DFB992146
:101340004DF2095000F008FB00214DF20A5000F068
:1013500003FBBB214DF20B5000F0FEFA00214DF2D1
:101360000C5000F0F9FADC214DF20D5000F0F4FAC7
:1013700000214DF20E5000F0EFFA04214DF20F5013
:1013800000F0EAFA01214DF2105000F0E5FA2521B3
:101390004DF2115000F0E0FA01214DF2125000F030
:1013A000DBFA59214DF2135000F0D6FA01214DF22B
:1013B000145000F0D1FA82214DF2155000F0CCFA11
:1013C00001214DF2165000F0C7FAC6214DF2175018
:1013D00000F0C2FA02214DF2185000F0BDFA0121CE
:1013E0004DF2195000F0B8FA02214DF21A5000F0F7
:1013F000B3FA02214DF21B5000F0AEFA02214DF279
:101400001C5000F0A9FA39214DF21D5000F0A4FA49
:1014100002214DF21E5000F09FFA79214DF21F502B
:1014200000F09AFA02214DF2205000F095FAA12125
:101430004DF2215000F090FA02214DF2225000F0BE
:101440008BFAD9214DF2235000F086FA03214DF298
:10145000245000F081FA00214DF2255000F07CFA72
:1014600003214DF2265000F077FA38214DF2275033
:1014700000F072FA03214DF2285000F06DFA672156
:101480004DF2295000F068FA03214DF22A5000F085
:1014900063FA8F214DF22B5000F05EFA03214DF2DA
:1014A0002C5000F059FACD214DF22D5000F054FA95
:1014B00003214DF22E5000F04FFAFD214DF22F5036
:1014C00000F04AFA03214DF2305000F045FAFE21B7
:1014D0004DF2315000F040FA03214DF2325000F04D
:1014E0003BFAFF214DF2335000F036FA00214FF461
:1014F000564000F031FA05214DF2016000F02CFA5F
:1015000000214DF2026000F027FA40214DF2036005
:1015100000F022FA00214DF2046000F01DFA6D2166
:101520004DF2056000F018FA00214DF2066000F05F
:1015300013FA90214DF2076000F00EFA00214DF2EF
:10154000086000F009FA99214DF2096000F004FAF0
:1015500000214DF20A6000F0FFF9BB214DF20B6053
:1015600000F0FAF900214DF20C6000F0F5F9DC21F1
:101570004DF20D6000F0F0F901214DF20E6000F027
:10158000EBF904214DF20F6000F0E6F901214DF274
:10159000106000F0E1F925214DF2116000F0DCF956
:1015A00001214DF2126000F0D7F959214DF213607C
:1015B00000F0D2F901214DF2146000F0CDF9822142
:1015C0004DF2156000F0C8F901214DF2166000F0EF
:1015D000C3F9C6214DF2176000F0BEF902214DF2A9
:1015E000186000F0B9F901214DF2196000F0B4F96A
:1015F00002214DF21A6000F0AFF902214DF21B609A
:1016000000F0AAF902214DF21C6000F0A5F9392181
:101610004DF21D6000F0A0F902214DF21E6000F0B5
:101620009BF979214DF21F6000F096F902214DF2ED
:10163000206000F091F9A1214DF2216000F08CF9B9
:1016400002214DF2226000F087F9D9214DF223608A
:1016500000F082F903214DF2246000F07DF90021B1
:101660004DF2256000F078F903214DF2266000F07C
:1016700073F938214DF2276000F06EF903214DF225
:10168000286000F069F967214DF2296000F064F9E3
:1016900003214DF22A6000F05FF98F214DF22B609B
:1016A00000F05AF903214DF22C6000F055F9CD21DC
:1016B0004DF22D6000F050F903214DF22E6000F044
:1016C0004BF9FD214DF22F6000F046F903214DF258
:1016D000306000F041F9FE214DF2316000F03CF93C
:1016E00003214DF2326000F037F9FF214DF23360F3
:1016F00000F032F955214FF4704000F02DF9AA2185
:101700004FF2010000F028F952214FF2020000F0E0
:1017100023F908214FF2030000F01EF900214FF2D7
:10172000040000F019F9CC214FF4314000F014F915
:1017300000214BF2011000F00FF905214FF4364063
:1017400000F00AF970214FF4374000F005F97021DC
:101750004BF2017000F000F901214FF4384000F025
:10176000FBF805214BF6010000F0F6F805214BF6D9
:10177000020000F0F1F805214BF6030000F0ECF850
:1017800000214FF43C4000F0E7F800214BF6014007
:1017900000F0E2F800214BF6024000F0DDF8D02125
:1017A0004FF4494000F0D8F882214CF6011000F0C7
:1017B000D3F850214CF6021000F0CEF850214CF630
:1017C000031000F0C9F850214CF6041000F0C4F8E2
:1017D00055214FF4685000F0BFF84FF4885000F0E6
:1017E000B6F80448FEF767FD4FF4245000F0AFF858
:1017F00010BD0000C0D401002DE9F04F04460D4695
:1018000016469A46DDF8249018224FF00C0B202E35
:1018100001DB7F2E01DDBDE8F08FA6F12000C6B20E
:101820004FF4285000F093F8201200F09DF842F693
:10183000012000F08CF8E0B200F096F842F60220A9
:1018400000F085F80BEB0401491EC1F30F2000F0F6
:101850008BF842F6032000F07AF80BEB0401491EE6
:10186000C8B200F081F84FF42C5000F070F8281244
:1018700000F07AF842F6013000F069F8E8B200F0C2
:1018800073F842F6023000F062F85119491EC1F3B4
:101890000F2000F069F842F6033000F058F85119B3
:1018A000491EC8B200F060F84FF4305000F04FF815
:1018B000002327E000271EE04FF0000817E006EBAA
:1018C000C600144901EB800008EB48011944405C54
:1018D000B84000F0800018B1504600F045F802E032
:1018E000484600F041F808F1010000F0FF08D84533
:1018F000E5DB781CC7B2032092FBF0F0B842DBDCDA
:10190000581CC3B2D11702EB5171B3EBE10FD1DB1D
:1019100000BF80E7983500082DE9F84305460F46DB
:1019200014469846DDF820902E460BE0CDF8009046
:101930002278434639463046FFF75EFF06F10C0039
:1019400086B2641C20780028F0D1BDE8F8834FF0FF
:10195000D8410880704700004FF0D8421080014AFB
:10196000118070470008006C014908807047000032
:101970000008006C124AD26942F00202104BDA6190
:10198000104A1080121F11800E4A203A128842F02D
:1019900001020C4B203B1A800A4A2C3A128842F072
:1019A0000102084B2C3B1A804523074A1370074A53
:1019B000126842F000524FF0E023C3F80021704754
:1019C000001002402C0400401DE400E000E100E0B3
:1019D00010B504462848806940F480402649886153
:1019E0000846806940F0040088612448006820F0BF
:1019F0003000224908600846006840F01000086086
:101A00000846006820F0C00008600846006840F002
:101A1000800008600846006820F4407008600846AE
:101A2000006820F4406008600846006840F4806068
:101A300008601348B0FBF4F012490880081D0088C4
:101A400040F40050091D08800846008840F0080056
:101A500008800846008840F0040008800846008896
:101A600040F0200008800121252000F057F92520B2
:101A700000F049F910BD00000010024004080140C8
:101A800000A24A040838014010B504462848C0693D
:101A900040F480202649C8610846806940F008006B
:101AA00088612448006820F4407022490860084694
:101AB000006840F4807008600846006820F44060C8
:101AC00008600846006840F4006008600846006846
:101AD00020F4405008600846006820F44040086048
:101AE0000846006840F4804008601348B0FBF4F0FA
:101AF00012490880081D008840F40050091D088024
:101B00000846008840F0080008800846008840F039
:101B1000040008800846008840F020000880012169
:101B2000272000F0FBF8272000F0EDF810BD0000A2
:101B300000100240040C01400051250208480040FA
:101B40002148006840F480301F49086000BF1E48EB
:101B5000006800F400300028F9D01C48006840F00C
:101B600002001A4908601848406840F4803016495D
:101B700048600846406840F4E01048600846006845
:101B800040F08070086000BF0F48006800F00070EF
:101B90000028F9D00C4840680B4948600846406866
:101BA00040F48060486008464068486008464068E5
:101BB00040F00200486000BF0348406800F00C009D
:101BC0000828F9D1704700000010024000200240B0
:101BD00010B50C48006800F0010090B142F210709E
:101BE000FEF769FB08480078012807D1074800780C
:101BF000C0F101000549087000F04CFF01200149C7
:101C0000086010BD14040140000000200100002005
:101C100010B50A48006800F0040068B142F2107084
:101C2000FEF749FB06480078042802D1401F00F067
:101C30005BFB04200149086010BD00001404014052
:101C40000000002008B51448006800F0080008B340
:101C500042F21070FEF72FFB10480078042805D1DF
:101C600005200E49087000F0E3FC10E00B480078F6
:101C700005280CD10420094908704FF6FF7028236D
:101C80004FF4BE72B42100909620FEF72EFD08207E
:101C90000149086008BD0000140401400000002054
:101CA00010B51248006800F01000F0B142F2107058
:101CB000FEF701FB0E48007801280CD10D49087091
:101CC00000F0E8FE0C48007860B102200849087076
:101CD00000F0DAFC06E006480078042802D1012072
:101CE00000F002FB10200149086010BD14040140FF
:101CF00000000020020000200300002000BFFEE7DB
:101D000000BFFEE7704700F01F0201219140420929
:101D1000920002F1E022C2F80011704710B50028CD
:101D200007DA0A07140E054A00F00F031B1FD454EC
:101D300003E00A07130E024A135410BD18ED00E029
:101D400000E400E07047704710B500F001F810BDE6
:101D50000CB50020019000903348006840F48030BA
:101D60003149086000BF3048006800F4003000903E
:101D70000198401C0190009818B90198B0F5A06F27
:101D8000F1D12948006800F4003010B10120009022
:101D900001E0002000900098012843D1234800680A
:101DA00040F01000214908600846006820F0030058
:101DB00008600846006840F0020008601A48406861
:101DC000194948600846406848600846406840F441
:101DD000806048600846406820F47C1048600846EF
:101DE000406840F4E81048600846006840F08070A1
:101DF000086000BF0C48006800F000700028F9D0AF
:101E00000948406820F003000749486008464068D8
:101E100040F00200486000BF0348406800F00C003A
:101E20000828F9D10CBD000000100240002002403B
:101E30007047000010B51348006840F001001149D8
:101E4000086008464068104908400E494860084646
:101E500000680E4908400B4908600846006820F4F5
:101E6000802008600846406820F4FE0048604FF477
:101E70001F008860FFF768FF4FF0006004490860AA
:101E800010BD0000001002400000FFF8FFFFF6FE4A
:101E900008ED00E010B50948008800F0010058B1D5
:101EA00007480078042801D100F0F8FC03480088B6
:101EB00020F001000149088010BD0000100400401E
:101EC000000000200A48008800F0200078B108498E
:101ED000091D0988C8B2302808DB372806DCA0F1C4
:101EE0003001044A11700121034A117000BF70478C
:101EF00000380140040000200500002010B507480C
:101F0000008800F0200038B10448001D0088C4B2E9
:101F1000204600F04BF800BF10BD00000048004014
:101F200000BFFEE708B54FF6FF70012309220090BD
:101F30000348018803480088FEF7CEFA08BD000078
:101F4000100000200E00002008B54FF47840012357
:101F5000082200900348018803480088FEF7BCFA75
:101F600008BD00000A0000200800002008B54FF658
:101F7000E0700A230090094802883C210848008844
:101F8000FEF7B3FB1F200A230090064802883C217D
:101F900005480088FEF7A9FB08BD000016000020D8
:101FA00012000020180000201400002038B504465C
:101FB0002448007801281AD1552C01D0442C08D18E
:101FC00021480078C0F101001F49087000F062FD4F
:101FD00036E0532C34D101201C49087000F05AFD22
:101FE0001B48007860B302201649087028E01548A5
:101FF0000078042811D14C2C03D1401F00F0B0F917
:102000001EE0522C03D1012000F0AAF918E0542C54
:1020100016D105200B49087012E00A4800780528FF
:102020000ED1542C0CD10420064908704FF6FF70D5
:1020300028234FF4BE72B42100909620FEF755FB82
:1020400038BD000000000020010000200300002037
:102050000200002038B504460D46F0205A49088099
:102060004FF4C8705949088057480088584908807B
:102070005648008857490880D22057490880574958
:1020800008800020564908605649088001205649BA
:1020900008700020554908701DB901205449087086
:1020A00002E00220524908702046E11704EB51710A
:1020B000C910A4EBC101082969D2DFE801F00411BD
:1020C0001C2A35444F5D4A480078400040B24949D7
:1020D000087047480078400040B24749087056E011
:1020E0000020444908704248007800EB400040B2AC
:1020F000414908704BE03E4800784000404240B201
:102100003C4908703A480078400040B23A490870AB
:102110003DE037480078A0EB800040B235490870B8
:1021200000203549087032E03148007840004042D4
:1021300040B2304908702E4800784000404240B21A
:102140002D49087023E000202A49087028480078AB
:10215000A0EB800040B22849087018E024480078BD
:10216000400040B2234908702148007840004042B6
:1021700040B2214908700AE01D48007800EB400099
:1021800040B21C49087000201B49087000BF00BF06
:102190004FF6FF70FEF700FBFFF7E8FEFFF7D4FEF7
:1021A0004FF6FF70002315A20A210090084600F0A8
:1021B00059FA4FF6FF70002312A20A2100904FF443
:1021C000967000F04FFA38BD080000200A00002089
:1021D0000E0000201000002012000020140000203B
:1021E0001C000020200000202200002023000020EE
:1021F000240000200C0000200D00002054696D65B3
:102200003A000000426F756E6365733A000000008B
:10221000FFF796FCFEF7C6FAFEF754F8FEF7E4F86F
:102220004FF41650FFF7D4FB4FF41650FFF72CFC79
:1022300041F61F4140F2E730FFF79CFB00F052FAF5
:102240002148FEF738F801202049087000F0CEF848
:1022500038E01E480078072832D2DFE800F0310469
:10226000050F1B1E1F002CE01948007810B900F064
:102270000BFA02E003201549087022E000F090FA02
:102280001448017814480078FFF7E4FE04200F4951
:10229000087016E000F002FC13E012E000F040F9D4
:1022A0000E48FEF708F800200D4908700D49087027
:1022B0000749087001200549087000F097F800E010
:1022C00000BF00BFC5E7000080841E0000000020A2
:1022D000050000200100002004000020C0C62D00E1
:1022E000020000200300002038B504461948007899
:1022F000042800D038BD4FF6FF700A23009016481E
:1023000002883C2115480088FEF7EFF904EB8400B1
:102310001249098801EB40001049088008460088EE
:10232000002801DA002008800C480088B0F5D27F30
:1023300003DD4FF4D270094908804FF6E0700A239C
:102340000090054802883C2104480088FEF7CDF93A
:1023500000BFCFE700000020160000201200002080
:1023600038B5044619480078042800D038BD4FF627
:10237000FF700A230090164802883C211548008807
:10238000FEF7B3F904EB84001249098801EB400021
:102390001049088008460088002801DA00200880DB
:1023A0000C480088B0F5D27F03DD4FF4D2700949A4
:1023B00008801F200A230090054802883C21054818
:1023C0000088FEF792F900BFD0E70000000000206F
:1023D000180000201400002010B50246012000E083
:1023E00050430B1EA1F10101FAD110BD08B54FF603
:1023F000FF70FEF7D1F94FF6FF704FF478432CA22F
:1024000096210090322000F02DF93048007898B9DC
:102410004FF6FF701F232EA2FA210090322000F009
:1024200021F94FF6FF7000232BA24FF49671009014
:10243000322000F017F912E04FF6FF70002324A2BB
:10244000FA210090322000F00DF94FF6FF701F23A3
:1024500021A24FF496710090322000F003F94FF65C
:10246000FF704FF478431EA24FF4C87100903220E1
:1024700000F0F8F82048007850B14FF6FF704FF4A4
:10248000FC631EA24FF4FA710090322000F0EAF8CB
:102490001E48007850B14FF6FF704FF4FC631CA249
:1024A00040F212210090322000F0DCF808BD00005C
:1024B000506C656173652073656C65637420646935
:1024C00066666963756C74793A000000010000204B
:1024D00045617379000000004861726400000000EB
:1024E0005072657373204B45593020746F20656EB0
:1024F0007465722E0000000002000020506C6179AB
:10250000657220413A205265616479000300002021
:10251000506C6179657220423A205265616479009D
:1025200008B50020FEF738F91348007801280AD1D1
:1025300000204FF4FC6311A24FF4967100907820B4
:1025400000F090F80DE00C480078022809D1002036
:102550004FF4FC630DA24FF496710090782000F0C8
:1025600081F800204FF6FF730CA24FF4C871009061
:10257000642000F077F808BD23000020506C6179DA
:10258000657220412057696E73210000506C61799B
:10259000657220422057696E732100005265737482
:1025A000617274696E672E2E2E0000002DE9F84FBF
:1025B00006468A4690461D46DDF82C904FF0000BEB
:1025C000002430E0281B411E0A20FFF705FFB8FB5E
:1025D000F0F00A21B0FBF1F201FB1207BBF1000F92
:1025E00011D1681EA0420EDD5FB90C2101FB046110
:1025F00088B2CDF80090202251460A9BFFF7FCF8E4
:102600000FE04FF0010B07F13001CAB20C2101FBC2
:10261000046188B2CDF8009051460A9BFFF7ECF8B0
:1026200000BF601CC4B2AC42CCDBBDE8F88F000038
:1026300008B5002028234FF4BE72B42100909620E4
:10264000FEF753F800204FF6E07304A24FF4C37175
:102650000090B42000F006F808BD0000504155532A
:10266000454400002DE9F84304460D4616461F4632
:10267000DDF820803B46324629462046CDF80080D2
:10268000FFF74AF9BDE8F88308B54FF6FF70FEF78B
:1026900083F84FF6FF704FF4784309A24FF4AF71FF
:1026A00000903220FFF7DEFF4FF6FF704FF47843C3
:1026B00009A24FF4BE7100903220FFF7D3FF08BD8E
:1026C00055736520555341525420666F7220612026
:1026D00072616E646F6D0000646972656374696F26
:1026E0006E2E000008B54FF6FF70FEF755F84FF656
:1026F000FF701F2313A2C82100905020FFF7B2FFE4
:102700004FF6FF704FF4784315A2FA210090502045
:10271000FFF7A8FF4FF6FF704FF4784316A24FF46F
:10272000967100905020FFF79DFF4FF6FF704FF419
:10273000784315A24FF4AF7100905020FFF792FF3D
:1027400008BD000057656C636F6D6520746F206D68
:10275000696E692050726F6A656374210000000021
:1027600054686973206973207468652046696E61D6
:102770006C204C616200000041726520796F752009
:1027800072656164793F0000332E2E2E322E2E2E7C
:10279000312E2E2E4C657427732073746172740071
:1027A00008B54FF6FF70FDF7F7FFFFF7DFFB0020DE
:1027B0004FF448734FF4F07201460090FDF762FF4A
:1027C0004FF6FF704FF478432EA24FF4BE71009085
:1027D000DC20FFF747FF2C48FDF76DFD4FF6FF703B
:1027E00018234FF4BE7219460090DC20FDF77DFFE0
:1027F0004FF6FF704FF4784324A24FF4BE7100905F
:10280000DC20FFF72FFF2048FDF755FD4FF6FF7046
:1028100018234FF4BE7219460090DC20FDF765FFC7
:102820004FF6FF704FF4784319A24FF4BE71009039
:10283000DC20FFF717FF1448FDF73DFD4FF6FF7052
:1028400018234FF4BE7219460090DC20FDF74DFFAF
:102850004FF6FF704FF4FC630EA24FF4BE71009070
:10286000C820FFF7FFFE0C48FDF725FD4FF6FF706F
:1028700018234FF4BE723C210090C820FDF735FFAD
:1028800008BD00003300000040420F00320000008D
:1028900031000000474F210020A1070010B56E480D
:1028A000007818B16D480078042800D010BD6C483D
:1028B0000068401C6A4908606A4800886A490880C4
:1028C0006A4800886A49088066480088694991F921
:1028D000001008446349088064480088664991F9FB
:1028E00000100844614908805E480088082804DD1B
:1028F0005C480088B0F5EC7F22DB5E4800784042FF
:1029000040B25C49087057480088082802DC08205B
:102910005449088053480088B0F5EC7F03DB4FF43E
:10292000EC705049088055480088401C5349088085
:10293000FDF7B6FC41F28830FDF7BDFCFDF7A6FCC3
:102940004A48008808304E49098888422CDB4748AD
:10295000008808304A4909880A31884224DC414805
:1029600000884849098888421EDB3E48018845485E
:1029700000883C30814217DC3F480078404240B23A
:102980003D4908703E4800880838384908803B486F
:102990000088401C39490880FDF782FC41F28830EC
:1029A000FDF789FCFDF772FC30480088083836498D
:1029B00009880A3188422BDC2C48008808383249C3
:1029C0000988884224DB27480088304909888842E2
:1029D0001EDB244801882D4800883C30814217DCEA
:1029E00025480078404240B22349087026480088B4
:1029F00012301E49088021480088401C1F49088069
:102A0000FDF74EFC41F28830FDF755FCFDF73EFC2A
:102A100016480088B0F5487F09DB02201C49087081
:102A200006200E49087000200B4908703EE70F4849
:102A30000088002809DC0120154908700620074994
:102A4000087000200449087030E7FFF76BFAFFF7C1
:102A50007BFA00BF2AE700002200002000000020CF
:102A60001C000020080000200E0000200A000020AA
:102A7000100000200C0000200D000020200000208D
:102A80001600002012000020180000201400002072
:102A90002300002010B5FFF7A9FC10BD1CB521488C
:102AA0000078042800D01CBD1F4800681F49096831
:102AB000401A642833D31C4800681C4908604FF64C
:102AC000FF7018230A22642100905020FDF70DFEAC
:102AD000154800686421B0FBF1F44FF6FF70002147
:102AE00003232246CDE900100A215020FFF75EFDA6
:102AF0004FF6FF7018230A22322100904FF4D27053
:102B0000FDF7F3FD4FF6FF7000210323CDE9001020
:102B1000074802880A214FF4D270FFF747FD00BF33
:102B2000C1E70000000000201C0000202800002059
:102B30002000002000000000000000000000000055
:102B4000000000003F4000000000000000003000D6
:102B5000400030004000000009000BC03D000BC0E9
:102B60003D00090018C024407FE022403180000071
:102B7000180024C01B000D803240018003801C40DF
:102B800027401C800740004010006000000000004B
:102B9000000000000000000000001F8020404020D6
:102BA0000000402020401F800000000009000600B7
:102BB0001F80060009000000040004003F8004009C
:102BC0000400000000100060000000000000000091
:102BD00004000400040004000400000000000040A1
:102BE0000000000000000000002001C006003800C6
:102BF000400000001F802040204020401F80000037
:102C0000000010403FC000400000000018C02140FC
:102C100022402440184000001080204024402440DE
:102C20001B80000002000D0011003FC001400000A9
:102C30003C80244024402440238000001F80244006
:102C400024403440038000003000200027C03800BA
:102C5000200000001B802440244024401B800000F2
:102C60001C0022C0224022401F8000000000000003
:102C700008400000000000000000000004600000A8
:102C800000000000000004000A0011002080404005
:102C90000900090009000900090000000000404087
:102CA000208011000A0004001800200023402400A6
:102CB000180000001F802040274029401F400000CE
:102CC000004007C039000F0001C0004020403FC055
:102CD000244024401B8000001F80204020402040D2
:102CE0003080000020403FC0204020401F80000076
:102CF00020403FC024402E4030C0000020403FC054
:102D000024402E00300000000F00108020402240A0
:102D10003380020020403FC0040004003FC0204038
:102D2000204020403FC02040204000000060202084
:102D300020203FC02000200020403FC024400B0046
:102D400030C0204020403FC020400040004000C034
:102D50003FC03C0003C03C003FC0000020403FC0DB
:102D60000C4023003FC020001F8020402040204016
:102D70001F80000020403FC02440240018000000B5
:102D80001F802140214020E01FA0000020403FC0C4
:102D90002440260019C0004018C02440244022408E
:102DA00031800000300020403FC020403000000053
:102DB00020003F80004000403F80200020003E0077
:102DC00001C0070038002000380007C03C0007C0E1
:102DD00038000000204039C0060039C02040000003
:102DE0002000384007C0384020000000304021C09B
:102DF0002640384020C00000000000007FE0402056
:102E000040200000000070000C0003800040000023
:102E10000000402040207FE0000000000000200073
:102E20004000200000000000001000100010001002
:102E30000010001000000000400000000000000032
:102E4000000002800540054003C0004020003FC054
:102E5000044004400380000000000380044004405C
:102E60000640000000000380044024403FC00040B2
:102E700000000380054005400340000000000440BE
:102E80001FC0244024402000000002E005500550EF
:102E90000650042020403FC00440040003C000400E
:102EA0000000044027C00040000000000010001097
:102EB000041027E00000000020403FC00140070050
:102EC00004C00440204020403FC0004000400000BB
:102ED00007C0040007C0040003C00000044007C08E
:102EE0000440040003C0004000000380044004408C
:102EF00003800000041007F0045004400380000029
:102F0000000003800440045007F00010044007C094
:102F10000240040004000000000006400540054097
:102F200004C00000000004001F80044000400000B6
:102F3000040007800040044007C000400400070070
:102F400004C0018006000400060001C0070001C0A3
:102F500006000000044006C0010006C00440000056
:102F60000410071004E00180060004000000044083
:102F700005C00640044000000000000004007BE0A3
:102F800040200000000000000000FFF000000000F2
:102F9000000040207BE004000000000040008000B2
:102FA0004000200020004000000000000000000061
:102FB00000000000000000000000000000001FCC26
:102FC000000C00000000000000000800300060005D
:102FD0000800300060000000022003FC1E200220D8
:102FE00003FC1E200220000000000E1811043FFF09
:102FF00010840C78000000000F0010840F3800C00F
:10300000077818840078000000780F8410C4112419
:103010000E9800E4008400080800680070000000BA
:10302000000000000000000000000000000007E0B9
:103030001818200440020000000040022004181864
:1030400007E00000000000000240024001800FF095
:1030500001800240024000000080008000800FF8E4
:1030600000800080008000000001000D000E0000C4
:1030700000000000000000000000008000800080D0
:1030800000800080008000800000000C000C000028
:1030900000000000000000000000000600180060B2
:1030A0000180060018002000000007F00808100446
:1030B0001004080807F000000000080408041FFCC2
:1030C000000400040000000000000E0C1014102486
:1030D000104411840E0C000000000C1810041104A0
:1030E000110412880C700000000000E0032004248A
:1030F00008241FFC0024000000001F981084110405
:103100001104108810700000000007F008881104F6
:10311000110418880070000000001C00100010FC52
:1031200013001C001000000000000E381144108431
:10313000108411440E38000000000700088C104471
:103140001044088807F00000000000000000030C95
:10315000030C000000000000000000000001010658
:10316000000000000000000000000080014002207C
:10317000041008081004000002200220022002208F
:1031800002200220022000000000100408080410A1
:10319000022001400080000000000E001200100C10
:1031A000106C10800F00000003E00C1813E41424CE
:1031B00017C4082807D000000004003C03C41C40CA
:1031C000074000E4001C000410041FFC110411045B
:1031D00011040E880070000003E00C1810041004A5
:1031E000100410081C10000010041FFC1004100430
:1031F0001004080807F0000010041FFC110411045B
:1032000017C410040818000010041FFC110411005A
:1032100017C010000800000003E00C181004100490
:1032200010441C780040000010041FFC1084008033
:10323000008010841FFC10040000100410041FFC08
:103240001004100400000000000300011001100130
:103250001FFE10001000000010041FFC110403806A
:103260001464181C1004000010041FFC1004000457
:1032700000040004000C000010041FFC1F0000FCF0
:103280001F001FFC1004000010041FFC0C040300AE
:1032900000E010181FFC100007F0080810041004CC
:1032A0001004080807F0000010041FFC10841080B0
:1032B000108010800F00000007F008181024102460
:1032C000101C080A07F2000010041FFC1104110072
:1032D00011C011300E0C000400000E1C11041084EB
:1032E000108410441C3800001800100010041FFC4B
:1032F000100410001800000010001FF81004000453
:10330000000410041FF8100010001E0011E0001C43
:10331000007013801C0010001FC0103C00E01F0054
:1033200000E0103C1FC000001004180C163401C04F
:1033300001C01634180C100410001C00130400FC0B
:1033400013041C00100000000804101C10641084FA
:1033500013041C04101800000000000000007FFE91
:103360004002400240020000000030000C000380D8
:103370000060001C00030000000040024002400208
:103380007FFE000000000000000000002000400060
:103390004000400020000000000100010001000189
:1033A0000001000100010001000040004000200079
:1033B000000000000000000000000098012401440B
:1033C0000144014400FC000410001FFC00880104BB
:1033D00001040088007000000000007000880104F3
:1033E000010401040088000000000070008801044E
:1033F000010411081FFC0004000000F8014401440E
:103400000144014400C800000000010401040FFC55
:103410001104110411001800000000D6012901292F
:10342000012901C90106000010041FFC00840100ED
:103430000100010400FC000400000104190419FC4F
:10344000000400040000000000000003000101016E
:10345000190119FE0000000010041FFC00240040A8
:1034600001B4010C010400000000100410041FFC52
:103470000004000400000000010401FC010401003C
:1034800001FC0104010000FC010401FC00840100B6
:103490000100010400FC0004000000F80104010424
:1034A0000104010400F80000010101FF008501048E
:1034B0000104008800700000000000700088010412
:1034C0000104010501FF00010104010401FC008465
:1034D0000104010001800000000000CC012401244F
:1034E000012401240198000000000100010007F8F8
:1034F0000104010400000000010001F800040004C0
:103500000004010801FC0004010001800170000CAE
:10351000001001600180010001F0010C003001C0C9
:103520000030010C01F0010000000104018C007466
:103530000170018C01040000010101810171000E84
:10354000001801600180010000000184010C0134B9
:1035500001440184010C0000000000000000000094
:1035600001003EFC4002400200000000000000009C
:10357000FFFF0000000000000000400240023EFC8F
:1035800001000000000000000000600080008000DA
:10359000400040002000200000000000000000006B
:1035A000000000000000000000000000000000001B
:1035B000000000000000000000000000000000000B
:1035C00000000000000000000000000F80380FFE27
:1035D000380F8038000000000000000000000000EC
:1035E0000000000000000100000600000C00003890
:1035F00000003100000600000C0000380000300020
:10360000000000000000000061800067F807F980FA
:103610000061800061800061800061800067F807C0
:10362000F98000618000000000000000000001C07F
:10363000E003E0F00630080418081FFFFE040E083F
:103640000787F00381E000000000000001F00006A1
:103650000C00040408060C7001F9C0000E00003BC9
:10366000E000EC18070808040C180003E000000054
:103670000001E00007F003F818041C08041708070D
:10368000E1D003C0E00023B0003C080020080000A7
:1036900010000000000000010000310000320000B6
:1036A0001C000000000000000000000000000000FE
:1036B000000000000000000000000000000000000A
:1036C00000000000000000007F0001FFC00780F044
:1036D0000C00181000042000020000000000002070
:1036E00000021000040C00180780F001FFC0007FEA
:1036F00000000000000000000000000000000000CA
:10370000000000004200006600006600003C00006F
:10371000180003FFC0001800003C000066000066AF
:10372000000042000000000008000008000008003F
:1037300000080000080001FFC000080000080000A9
:103740000800000800000800000000000001000060
:103750003100003200001C000000000000000000EA
:103760000000000000000000000000000000000059
:103770000800000800000800000800000800000819
:103780000000080000080000080000080000000019
:103790000000000000000000380000380000380081
:1037A0000000000000000000000000000000000019
:1037B0000000000000000000000600001C00007077
:1037C000000180000E0000380000C0000700001C4F
:1037D0000000300000000000000000007F8001FFBA
:1037E000E0038070060018040008040008060018B2
:1037F00003807001FFE0007F8000000000000000F7
:10380000000001000801000801000803FFF807FF9D
:10381000F800000800000800000800000000000098
:1038200000000001C03802C05804009804011804C8
:103830000218040418061C1803F81801E0F8000028
:103840000000000000000001C0E003C0F004000818
:1038500004080804080806180803F41801E7F00033
:1038600001E0000000000000000000000300000D67
:103870000000110000610000810803010807FFF843
:103880000FFFF80001080001080000000000000020
:1038900000E007FCD006080806100806100806100D
:1038A00008061838060FF00607C0000000000000E8
:1038B000000000003F8001FFE0038430020818048C
:1038C0001008041008041008071810030FF0000770
:1038D000C000000000000000000003C0000700005E
:1038E0000600000600F80607F806180006E00007C4
:1038F000000006000000000000000001E1E003F706
:10390000F0063410041808041808040C08040C0805
:1039100006161803F3F001C1E000000000000000EB
:10392000F80003FC3003063804020804020804020D
:10393000080404100308F001FFC0007F000000002D
:103940000000000000000000000000000000000077
:10395000703800703800703800000000000000006F
:103960000000000000000000000000000000000057
:1039700000000000301A00301C00000000000000B1
:10398000000000000000000000000000000000082F
:10399000000014000022000041000080800100406F
:1039A00002002004001008000800000000000000D1
:1039B0002100002100002100002100002100002141
:1039C0000000210000210000210000210000000073
:1039D00000000000000008000804001002002001A0
:1039E0000040008080004100002200001400000818
:1039F0000000000000000003C00004C0000400003C
:103A0000080038080F380808380810000C30000784
:103A1000E00003C000000000000000003F8000FF45
:103A2000E0038070020F1006708804C088048308C9
:103A3000047F8802C09003012000FE4000000800BF
:103A400000180001F8003E0801C20007020007E26A
:103A50000000FE00001FC80001F800003800000848
:103A600004000807FFF807FFF80408080408080422
:103A7000080804080806180803F41801E7F0000114
:103A8000E0000000000000003F8001FFE0038070C4
:103A900002001804000804000804000804001006CE
:103AA00000200780C000000004000807FFF807FF9F
:103AB000F8040008040008040008040018020010BC
:103AC00003807001FFE0007F800000000400080711
:103AD000FFF807FFF80408080408080408080408A9
:103AE00008043E08040008060018010060000000F9
:103AF00004000807FFF807FFF8040808040800049A
:103B00000800040800043E000600000600000180D2
:103B100000000000000000003F8001FFE003807013
:103B20000600180400080402080402080203F00753
:103B300083F000020000020004000807FFF807FFFE
:103B4000F804080800080000080000080000080049
:103B500004080807FFF807FFF80400080000000049
:103B6000000004000804000804000807FFF807FF2D
:103B7000F804000804000804000800000000000029
:103B8000000000000006000007000001040001041E
:103B9000000104000307FFFE07FFFC04000004000F
:103BA0000004000004000807FFF807FFF8040C08F1
:103BB000001800003E0004C7800503C80600F80492
:103BC000003804001800000804000807FFF807FF89
:103BD000F8040008000008000008000008000008C1
:103BE0000000080000180000600000000400080742
:103BF000FFF807800807FC00007FC00003F80007FB
:103C0000C000780007800807FFF807FFF8040008E5
:103C100004000807FFF807000803C00000E00000E8
:103C20003800001E000007000001C00400F007FF7C
:103C3000F8040000000000007F8001FFE0038070B6
:103C400006001804000804000806001803003001EC
:103C5000FFE0007F8000000004000807FFF807FF76
:103C6000F80404080404000404000404000404002C
:103C7000060C0003F80001F0000000000000000046
:103C80007F8001FFE0038070060088040088040044
:103C9000C806003C03003E01FFE6007F84000000F0
:103CA00004000807FFF807FFF804080804080004E8
:103CB0000C00040F00040BC00610F003F03801E004
:103CC0000800000800000001E0F803F030063010A2
:103CD000041808041808040C08040C08020618024A
:103CE00007F00781E00000000180000600000400EA
:103CF0000004000004000807FFF807FFF8040008AC
:103D00000400000400000600000180000400000719
:103D1000FFE007FFF00400180000080000080000A2
:103D20000800000800000804001007FFE00400007D
:103D300004000006000007E00007FE00041FE0008A
:103D400001F80000380001E0043E0007C000060052
:103D50000004000004000007E00007FFC0041FF893
:103D60000007C007F80007FF80043FF80007C00401
:103D7000F80007000004000000000004000806002E
:103D80001807C07805F1C8003E00001F800463E8F2
:103D90000780F80600180400080000000400000670
:103DA000000007800007E008047C08001FF80007F7
:103DB000F800180804E008070000060000040000EE
:103DC0000000000100080600380400F80403E804BD
:103DD0000F08047C0805F00807C008070018040055
:103DE0006000000000000000000000000000000073
:103DF0000000003FFFFE2000022000022000022001
:103E00000002200002000000000000000000080086
:103E10000007000000C0000038000006000001C0DC
:103E200000003000000E0000010000000000000053
:103E300000002000022000022000022000022000DA
:103E4000023FFFFE00000000000000000000000034
:103E5000000000000000000000080000100000301A
:103E600000002000003000001000000800000000EA
:103E7000000000000000010000010000010000013E
:103E8000000001000001000001000001000001002D
:103E9000000100000100000100000000000000001F
:103EA00000200000200000100000100000000000B2
:103EB0000000000000000000000000000000000002
:103EC00000F00019F8001B18002208002608002442
:103ED00008002410003FF8001FF800000800001838
:103EE00000000004000007FFF80FFFF000181800A2
:103EF0001008002008002008003018001FF0000FF4
:103F0000C00000000000000007C0001FF0001830D3
:103F1000002008002008002008003C08001C1000B9
:103F200000600000000000000000000007C0001F4B
:103F3000F0003818002008002008002008041010A5
:103F400007FFF80FFFF00000100000000000000065
:103F500000000007C0001FF00012300022180022ED
:103F600008002208003208001E10000E2000000089
:103F700000000000200000200800200801FFF803D6
:103F8000FFF806200804200804200807200003008A
:103F90000000000000000000000E000E6E001FF385
:103FA0000031B10020B10020B1003191001F130099
:103FB0002E1E00200E00300000000004000807FF45
:103FC000F80FFFF800100800200000200000200873
:103FD000003FF8001FF8000008000000000000008B
:103FE0000000002008002008002008063FF8063FD7
:103FF000F8000008000008000008000000000000B1
:104000000000000000000000030000030020010089
:104010002001002003063FFE063FFC0000000000D8
:104020000000000000000004000807FFF80FFFF880
:10403000000188000300002FC00038F8002038007D
:10404000200800000800000000000000000004003C
:104050000804000804000807FFF80FFFF800000834
:104060000000080000080000000000000020080018
:104070003FF8003FF8001008002000003FF8003F24
:10408000F8001008002000003FF8003FF80000088A
:10409000000000002008003FF8003FF80010080072
:1040A0001000002000002008003FF8001FF800006A
:1040B000080000000000000007C0000FF0001830EA
:1040C00000300800200800200800300800183000E8
:1040D0000FF00007C0000000000000002001003FBA
:1040E000FF003FFF001011002009002008002008F9
:1040F000003038001FF0000FC0000000000000007A
:1041000007C0001FF0003818002008002008002019
:1041100009001011001FFF003FFF00000100000018
:10412000002008002008002008003FF8003FF800A9
:1041300008080010080020080020000030000030AF
:1041400000000000000000000000000C78001E18B5
:10415000003308002308002108002188002198006E
:1041600030F0003860000000000000002000002057
:104170000000200000FFF003FFF8002008002008E6
:1041800000200800003000000000000000000000D7
:104190002000003FF0007FF8000018000008000039
:1041A00008002010003FF8007FF000001000000021
:1041B000000000002000003000003C00003F8000B4
:1041C00023F0000078000070002380003C000030E5
:1041D00000002000002000003C00003FE00023F829
:1041E0000000E0002700003E00003FE00021F80052
:1041F00001E0003E00002000000000002008002038
:1042000008003838003E680027800003C8002CF8FA
:1042100000383800201800200800000000000000CE
:104220002000003003003C01003F830023EC00002D
:1042300070002380003C00002000002000000000EF
:104240000000000000000038080020380020F800BE
:1042500023E8002F88003E080038080020180000DE
:1042600070000000000000000000000000000000DE
:104270000000000008000014001FF7FC30000620BA
:10428000000200000000000000000000000000002C
:1042900000000000000000000000FFFFFF00000021
:1042A000000000000000000000000000000000000E
:1042B00000002000023000061FF7FC001400000878
:1042C00000000000000000000000000000000000EE
:1042D00000000018000060000040000040000020C6
:1042E00000001000000800000400000400000C00A2
:1042F0000010000014430008000000202C00000003
:104300006C010008404300082C00002064060000F7
:10431000880100080000000000000000F00090018B
:104320000202F0009001D200D200F8020A00000060
:10433000000000000000000001000000000000007C
:04000005080001CD21
:00000001FF
